{
  "contractName": "Filmrare",
  "abi": [
    {
      "inputs": [
        {
          "internalType": "contract MinimalForwarder",
          "name": "forwarder",
          "type": "address"
        }
      ],
      "stateMutability": "nonpayable",
      "type": "constructor"
    },
    {
      "anonymous": false,
      "inputs": [
        {
          "indexed": true,
          "internalType": "address",
          "name": "account",
          "type": "address"
        },
        {
          "indexed": true,
          "internalType": "address",
          "name": "operator",
          "type": "address"
        },
        {
          "indexed": false,
          "internalType": "bool",
          "name": "approved",
          "type": "bool"
        }
      ],
      "name": "ApprovalForAll",
      "type": "event"
    },
    {
      "anonymous": false,
      "inputs": [
        {
          "indexed": true,
          "internalType": "address",
          "name": "previousOwner",
          "type": "address"
        },
        {
          "indexed": true,
          "internalType": "address",
          "name": "newOwner",
          "type": "address"
        }
      ],
      "name": "OwnershipTransferred",
      "type": "event"
    },
    {
      "anonymous": false,
      "inputs": [
        {
          "indexed": false,
          "internalType": "address",
          "name": "account",
          "type": "address"
        }
      ],
      "name": "Paused",
      "type": "event"
    },
    {
      "anonymous": false,
      "inputs": [
        {
          "indexed": true,
          "internalType": "address",
          "name": "operator",
          "type": "address"
        },
        {
          "indexed": true,
          "internalType": "address",
          "name": "from",
          "type": "address"
        },
        {
          "indexed": true,
          "internalType": "address",
          "name": "to",
          "type": "address"
        },
        {
          "indexed": false,
          "internalType": "uint256[]",
          "name": "ids",
          "type": "uint256[]"
        },
        {
          "indexed": false,
          "internalType": "uint256[]",
          "name": "values",
          "type": "uint256[]"
        }
      ],
      "name": "TransferBatch",
      "type": "event"
    },
    {
      "anonymous": false,
      "inputs": [
        {
          "indexed": true,
          "internalType": "address",
          "name": "operator",
          "type": "address"
        },
        {
          "indexed": true,
          "internalType": "address",
          "name": "from",
          "type": "address"
        },
        {
          "indexed": true,
          "internalType": "address",
          "name": "to",
          "type": "address"
        },
        {
          "indexed": false,
          "internalType": "uint256",
          "name": "id",
          "type": "uint256"
        },
        {
          "indexed": false,
          "internalType": "uint256",
          "name": "value",
          "type": "uint256"
        }
      ],
      "name": "TransferSingle",
      "type": "event"
    },
    {
      "anonymous": false,
      "inputs": [
        {
          "indexed": false,
          "internalType": "string",
          "name": "value",
          "type": "string"
        },
        {
          "indexed": true,
          "internalType": "uint256",
          "name": "id",
          "type": "uint256"
        }
      ],
      "name": "URI",
      "type": "event"
    },
    {
      "anonymous": false,
      "inputs": [
        {
          "indexed": false,
          "internalType": "address",
          "name": "account",
          "type": "address"
        }
      ],
      "name": "Unpaused",
      "type": "event"
    },
    {
      "inputs": [
        {
          "internalType": "address",
          "name": "account",
          "type": "address"
        },
        {
          "internalType": "uint256",
          "name": "id",
          "type": "uint256"
        }
      ],
      "name": "balanceOf",
      "outputs": [
        {
          "internalType": "uint256",
          "name": "",
          "type": "uint256"
        }
      ],
      "stateMutability": "view",
      "type": "function",
      "constant": true
    },
    {
      "inputs": [
        {
          "internalType": "address[]",
          "name": "accounts",
          "type": "address[]"
        },
        {
          "internalType": "uint256[]",
          "name": "ids",
          "type": "uint256[]"
        }
      ],
      "name": "balanceOfBatch",
      "outputs": [
        {
          "internalType": "uint256[]",
          "name": "",
          "type": "uint256[]"
        }
      ],
      "stateMutability": "view",
      "type": "function",
      "constant": true
    },
    {
      "inputs": [
        {
          "internalType": "address",
          "name": "account",
          "type": "address"
        },
        {
          "internalType": "address",
          "name": "operator",
          "type": "address"
        }
      ],
      "name": "isApprovedForAll",
      "outputs": [
        {
          "internalType": "bool",
          "name": "",
          "type": "bool"
        }
      ],
      "stateMutability": "view",
      "type": "function",
      "constant": true
    },
    {
      "inputs": [
        {
          "internalType": "address",
          "name": "forwarder",
          "type": "address"
        }
      ],
      "name": "isTrustedForwarder",
      "outputs": [
        {
          "internalType": "bool",
          "name": "",
          "type": "bool"
        }
      ],
      "stateMutability": "view",
      "type": "function",
      "constant": true
    },
    {
      "inputs": [],
      "name": "owner",
      "outputs": [
        {
          "internalType": "address",
          "name": "",
          "type": "address"
        }
      ],
      "stateMutability": "view",
      "type": "function",
      "constant": true
    },
    {
      "inputs": [],
      "name": "paused",
      "outputs": [
        {
          "internalType": "bool",
          "name": "",
          "type": "bool"
        }
      ],
      "stateMutability": "view",
      "type": "function",
      "constant": true
    },
    {
      "inputs": [],
      "name": "renounceOwnership",
      "outputs": [],
      "stateMutability": "nonpayable",
      "type": "function"
    },
    {
      "inputs": [
        {
          "internalType": "address",
          "name": "from",
          "type": "address"
        },
        {
          "internalType": "address",
          "name": "to",
          "type": "address"
        },
        {
          "internalType": "uint256[]",
          "name": "ids",
          "type": "uint256[]"
        },
        {
          "internalType": "uint256[]",
          "name": "amounts",
          "type": "uint256[]"
        },
        {
          "internalType": "bytes",
          "name": "data",
          "type": "bytes"
        }
      ],
      "name": "safeBatchTransferFrom",
      "outputs": [],
      "stateMutability": "nonpayable",
      "type": "function"
    },
    {
      "inputs": [
        {
          "internalType": "address",
          "name": "from",
          "type": "address"
        },
        {
          "internalType": "address",
          "name": "to",
          "type": "address"
        },
        {
          "internalType": "uint256",
          "name": "id",
          "type": "uint256"
        },
        {
          "internalType": "uint256",
          "name": "amount",
          "type": "uint256"
        },
        {
          "internalType": "bytes",
          "name": "data",
          "type": "bytes"
        }
      ],
      "name": "safeTransferFrom",
      "outputs": [],
      "stateMutability": "nonpayable",
      "type": "function"
    },
    {
      "inputs": [
        {
          "internalType": "address",
          "name": "operator",
          "type": "address"
        },
        {
          "internalType": "bool",
          "name": "approved",
          "type": "bool"
        }
      ],
      "name": "setApprovalForAll",
      "outputs": [],
      "stateMutability": "nonpayable",
      "type": "function"
    },
    {
      "inputs": [
        {
          "internalType": "bytes4",
          "name": "interfaceId",
          "type": "bytes4"
        }
      ],
      "name": "supportsInterface",
      "outputs": [
        {
          "internalType": "bool",
          "name": "",
          "type": "bool"
        }
      ],
      "stateMutability": "view",
      "type": "function",
      "constant": true
    },
    {
      "inputs": [
        {
          "internalType": "address",
          "name": "newOwner",
          "type": "address"
        }
      ],
      "name": "transferOwnership",
      "outputs": [],
      "stateMutability": "nonpayable",
      "type": "function"
    },
    {
      "inputs": [
        {
          "internalType": "uint256",
          "name": "",
          "type": "uint256"
        }
      ],
      "name": "uri",
      "outputs": [
        {
          "internalType": "string",
          "name": "",
          "type": "string"
        }
      ],
      "stateMutability": "view",
      "type": "function",
      "constant": true
    },
    {
      "inputs": [
        {
          "internalType": "uint256",
          "name": "_tokenId",
          "type": "uint256"
        }
      ],
      "name": "getCID",
      "outputs": [
        {
          "internalType": "string",
          "name": "",
          "type": "string"
        }
      ],
      "stateMutability": "view",
      "type": "function",
      "constant": true
    },
    {
      "inputs": [
        {
          "internalType": "uint256",
          "name": "_tokenId",
          "type": "uint256"
        }
      ],
      "name": "getCreator",
      "outputs": [
        {
          "internalType": "address",
          "name": "",
          "type": "address"
        }
      ],
      "stateMutability": "view",
      "type": "function",
      "constant": true
    },
    {
      "inputs": [
        {
          "internalType": "uint256",
          "name": "_tokenId",
          "type": "uint256"
        }
      ],
      "name": "getQuantityLeft",
      "outputs": [
        {
          "internalType": "uint256",
          "name": "",
          "type": "uint256"
        }
      ],
      "stateMutability": "view",
      "type": "function",
      "constant": true
    },
    {
      "inputs": [
        {
          "internalType": "string",
          "name": "newuri",
          "type": "string"
        }
      ],
      "name": "setURI",
      "outputs": [],
      "stateMutability": "nonpayable",
      "type": "function"
    },
    {
      "inputs": [],
      "name": "pause",
      "outputs": [],
      "stateMutability": "nonpayable",
      "type": "function"
    },
    {
      "inputs": [],
      "name": "unpause",
      "outputs": [],
      "stateMutability": "nonpayable",
      "type": "function"
    },
    {
      "inputs": [
        {
          "internalType": "address",
          "name": "_to",
          "type": "address"
        },
        {
          "internalType": "uint256",
          "name": "_quantity",
          "type": "uint256"
        },
        {
          "internalType": "string",
          "name": "_CID",
          "type": "string"
        }
      ],
      "name": "mint",
      "outputs": [],
      "stateMutability": "nonpayable",
      "type": "function"
    },
    {
      "inputs": [
        {
          "internalType": "address",
          "name": "to",
          "type": "address"
        },
        {
          "internalType": "uint256[]",
          "name": "ids",
          "type": "uint256[]"
        },
        {
          "internalType": "uint256[]",
          "name": "amounts",
          "type": "uint256[]"
        },
        {
          "internalType": "bytes",
          "name": "data",
          "type": "bytes"
        }
      ],
      "name": "mintBatch",
      "outputs": [],
      "stateMutability": "nonpayable",
      "type": "function"
    },
    {
      "inputs": [
        {
          "internalType": "uint256",
          "name": "_tokenId",
          "type": "uint256"
        },
        {
          "internalType": "address",
          "name": "_to",
          "type": "address"
        }
      ],
      "name": "purchaseToken",
      "outputs": [
        {
          "internalType": "uint256",
          "name": "",
          "type": "uint256"
        }
      ],
      "stateMutability": "nonpayable",
      "type": "function"
    },
    {
      "inputs": [
        {
          "internalType": "uint256",
          "name": "_tokenId",
          "type": "uint256"
        },
        {
          "internalType": "address",
          "name": "_to",
          "type": "address"
        },
        {
          "internalType": "uint256",
          "name": "_amount",
          "type": "uint256"
        }
      ],
      "name": "sellToken",
      "outputs": [],
      "stateMutability": "nonpayable",
      "type": "function"
    },
    {
      "inputs": [
        {
          "internalType": "address payable",
          "name": "_payee",
          "type": "address"
        },
        {
          "internalType": "uint256",
          "name": "_amount",
          "type": "uint256"
        }
      ],
      "name": "sendTo",
      "outputs": [],
      "stateMutability": "nonpayable",
      "type": "function"
    }
  ],
  "bytecode": "0x60806040523480156200001157600080fd5b50604051620048d9380380620048d98339818101604052810190620000379190620003a7565b604051806060016040528060288152602001620048b16028913981806000806101000a81548173ffffffffffffffffffffffffffffffffffffffff021916908373ffffffffffffffffffffffffffffffffffffffff16021790555050620000a4816200013760201b60201c565b50620000c5620000b96200015360201b60201c565b6200016f60201b60201c565b6000600460146101000a81548160ff021916908315150217905550620000f06200015360201b60201c565b600a60006101000a81548173ffffffffffffffffffffffffffffffffffffffff021916908373ffffffffffffffffffffffffffffffffffffffff160217905550506200049a565b80600390805190602001906200014f929190620002e0565b5050565b60006200016a6200023560201b620016891760201c565b905090565b6000600460009054906101000a900473ffffffffffffffffffffffffffffffffffffffff16905081600460006101000a81548173ffffffffffffffffffffffffffffffffffffffff021916908373ffffffffffffffffffffffffffffffffffffffff1602179055508173ffffffffffffffffffffffffffffffffffffffff168173ffffffffffffffffffffffffffffffffffffffff167f8be0079c531659141344cd1fd0a4f28419497f9722a3daafe3b4186f6b6457e060405160405180910390a35050565b600062000248336200027f60201b60201c565b156200025e57601436033560601c90506200027b565b62000273620002d860201b620016bb1760201c565b90506200027c565b5b90565b60008060009054906101000a900473ffffffffffffffffffffffffffffffffffffffff1673ffffffffffffffffffffffffffffffffffffffff168273ffffffffffffffffffffffffffffffffffffffff16149050919050565b600033905090565b828054620002ee906200041b565b90600052602060002090601f0160209004810192826200031257600085556200035e565b82601f106200032d57805160ff19168380011785556200035e565b828001600101855582156200035e579182015b828111156200035d57825182559160200191906001019062000340565b5b5090506200036d919062000371565b5090565b5b808211156200038c57600081600090555060010162000372565b5090565b600081519050620003a18162000480565b92915050565b600060208284031215620003ba57600080fd5b6000620003ca8482850162000390565b91505092915050565b6000620003e082620003fb565b9050919050565b6000620003f482620003d3565b9050919050565b600073ffffffffffffffffffffffffffffffffffffffff82169050919050565b600060028204905060018216806200043457607f821691505b602082108114156200044b576200044a62000451565b5b50919050565b7f4e487b7100000000000000000000000000000000000000000000000000000000600052602260045260246000fd5b6200048b81620003e7565b81146200049757600080fd5b50565b61440780620004aa6000396000f3fe608060405234801561001057600080fd5b50600436106101575760003560e01c806373e87689116100c3578063d3fc98641161007c578063d3fc9864146103ae578063d48e638a146103ca578063e985e9c5146103fa578063f242432a1461042a578063f2fde38b14610446578063f3f11bc31461046257610157565b806373e87689146102ee5780638456cb591461031e5780638da5cb5b14610328578063913a2ffe146103465780639e1a00aa14610376578063a22cb4651461039257610157565b80632eb2c2d6116101155780632eb2c2d6146102405780633f4ba83a1461025c5780634e1273f414610266578063572b6c05146102965780635c975abb146102c6578063715018a6146102e457610157565b8062fdd58e1461015c57806301ffc9a71461018c57806302fe5305146101bc5780630e89341c146101d857806315a68a10146102085780631f7fdffa14610224575b600080fd5b61017660048036038101906101719190612f3f565b610492565b604051610183919061396d565b60405180910390f35b6101a660048036038101906101a19190613053565b61055c565b6040516101b391906136b0565b60405180910390f35b6101d660048036038101906101d191906130a5565b61063e565b005b6101f260048036038101906101ed91906130e6565b6106c6565b6040516101ff91906136cb565b60405180910390f35b610222600480360381019061021d919061314b565b61075a565b005b61023e60048036038101906102399190612e58565b610888565b005b61025a60048036038101906102559190612d0a565b610916565b005b6102646109b7565b005b610280600480360381019061027b9190612fe7565b610a3d565b60405161028d9190613657565b60405180910390f35b6102b060048036038101906102ab9190612c69565b610bee565b6040516102bd91906136b0565b60405180910390f35b6102ce610c47565b6040516102db91906136b0565b60405180910390f35b6102ec610c5e565b005b610308600480360381019061030391906130e6565b610ce6565b604051610315919061396d565b60405180910390f35b610326610d59565b005b610330610ddf565b60405161033d919061357a565b60405180910390f35b610360600480360381019061035b91906130e6565b610e09565b60405161036d91906136cb565b60405180910390f35b610390600480360381019061038b9190612c92565b610eae565b005b6103ac60048036038101906103a79190612f03565b610ff0565b005b6103c860048036038101906103c39190612f7b565b611171565b005b6103e460048036038101906103df91906130e6565b61129c565b6040516103f1919061357a565b60405180910390f35b610414600480360381019061040f9190612cce565b6112d9565b60405161042191906136b0565b60405180910390f35b610444600480360381019061043f9190612dc9565b61136d565b005b610460600480360381019061045b9190612c69565b61140e565b005b61047c6004803603810190610477919061310f565b611506565b604051610489919061396d565b60405180910390f35b60008073ffffffffffffffffffffffffffffffffffffffff168373ffffffffffffffffffffffffffffffffffffffff161415610503576040517f08c379a00000000000000000000000000000000000000000000000000000000081526004016104fa9061376d565b60405180910390fd5b6001600083815260200190815260200160002060008473ffffffffffffffffffffffffffffffffffffffff1673ffffffffffffffffffffffffffffffffffffffff16815260200190815260200160002054905092915050565b60007fd9b67a26000000000000000000000000000000000000000000000000000000007bffffffffffffffffffffffffffffffffffffffffffffffffffffffff1916827bffffffffffffffffffffffffffffffffffffffffffffffffffffffff1916148061062757507f0e89341c000000000000000000000000000000000000000000000000000000007bffffffffffffffffffffffffffffffffffffffffffffffffffffffff1916827bffffffffffffffffffffffffffffffffffffffffffffffffffffffff1916145b806106375750610636826116c3565b5b9050919050565b61064661172d565b73ffffffffffffffffffffffffffffffffffffffff16610664610ddf565b73ffffffffffffffffffffffffffffffffffffffff16146106ba576040517f08c379a00000000000000000000000000000000000000000000000000000000081526004016106b1906138ad565b60405180910390fd5b6106c38161173c565b50565b6060600380546106d590613c53565b80601f016020809104026020016040519081016040528092919081815260200182805461070190613c53565b801561074e5780601f106107235761010080835404028352916020019161074e565b820191906000526020600020905b81548152906001019060200180831161073157829003601f168201915b50505050509050919050565b60006006600085815260200190815260200160002060009054906101000a900473ffffffffffffffffffffffffffffffffffffffff1690508161079d8286610492565b10156107de576040517f08c379a00000000000000000000000000000000000000000000000000000000081526004016107d5906138cd565b60405180910390fd5b6107fa818486856040518060200160405280600081525061136d565b826009600086815260200190815260200160002060006101000a81548173ffffffffffffffffffffffffffffffffffffffff021916908373ffffffffffffffffffffffffffffffffffffffff16021790555081600860008681526020019081526020016000205461086b9190613b01565b600860008681526020019081526020016000208190555050505050565b61089061172d565b73ffffffffffffffffffffffffffffffffffffffff166108ae610ddf565b73ffffffffffffffffffffffffffffffffffffffff1614610904576040517f08c379a00000000000000000000000000000000000000000000000000000000081526004016108fb906138ad565b60405180910390fd5b61091084848484611756565b50505050565b61091e61172d565b73ffffffffffffffffffffffffffffffffffffffff168573ffffffffffffffffffffffffffffffffffffffff16148061096457506109638561095e61172d565b6112d9565b5b6109a3576040517f08c379a000000000000000000000000000000000000000000000000000000000815260040161099a9061386d565b60405180910390fd5b6109b085858585856119c1565b5050505050565b6109bf61172d565b73ffffffffffffffffffffffffffffffffffffffff166109dd610ddf565b73ffffffffffffffffffffffffffffffffffffffff1614610a33576040517f08c379a0000000000000000000000000000000000000000000000000000000008152600401610a2a906138ad565b60405180910390fd5b610a3b611d24565b565b60608151835114610a83576040517f08c379a0000000000000000000000000000000000000000000000000000000008152600401610a7a9061390d565b60405180910390fd5b6000835167ffffffffffffffff811115610ac6577f4e487b7100000000000000000000000000000000000000000000000000000000600052604160045260246000fd5b604051908082528060200260200182016040528015610af45781602001602082028036833780820191505090505b50905060005b8451811015610be357610b8d858281518110610b3f577f4e487b7100000000000000000000000000000000000000000000000000000000600052603260045260246000fd5b6020026020010151858381518110610b80577f4e487b7100000000000000000000000000000000000000000000000000000000600052603260045260246000fd5b6020026020010151610492565b828281518110610bc6577f4e487b7100000000000000000000000000000000000000000000000000000000600052603260045260246000fd5b60200260200101818152505080610bdc90613cb6565b9050610afa565b508091505092915050565b60008060009054906101000a900473ffffffffffffffffffffffffffffffffffffffff1673ffffffffffffffffffffffffffffffffffffffff168273ffffffffffffffffffffffffffffffffffffffff16149050919050565b6000600460149054906101000a900460ff16905090565b610c6661172d565b73ffffffffffffffffffffffffffffffffffffffff16610c84610ddf565b73ffffffffffffffffffffffffffffffffffffffff1614610cda576040517f08c379a0000000000000000000000000000000000000000000000000000000008152600401610cd1906138ad565b60405180910390fd5b610ce46000611dc6565b565b60008060086000848152602001908152602001600020541415610d3e576040517f08c379a0000000000000000000000000000000000000000000000000000000008152600401610d359061370d565b60405180910390fd5b60086000838152602001908152602001600020549050919050565b610d6161172d565b73ffffffffffffffffffffffffffffffffffffffff16610d7f610ddf565b73ffffffffffffffffffffffffffffffffffffffff1614610dd5576040517f08c379a0000000000000000000000000000000000000000000000000000000008152600401610dcc906138ad565b60405180910390fd5b610ddd611e8c565b565b6000600460009054906101000a900473ffffffffffffffffffffffffffffffffffffffff16905090565b6060600760008381526020019081526020016000208054610e2990613c53565b80601f0160208091040260200160405190810160405280929190818152602001828054610e5590613c53565b8015610ea25780601f10610e7757610100808354040283529160200191610ea2565b820191906000526020600020905b815481529060010190602001808311610e8557829003601f168201915b50505050509050919050565b600073ffffffffffffffffffffffffffffffffffffffff168273ffffffffffffffffffffffffffffffffffffffff1614158015610f1757503073ffffffffffffffffffffffffffffffffffffffff168273ffffffffffffffffffffffffffffffffffffffff1614155b610f56576040517f08c379a0000000000000000000000000000000000000000000000000000000008152600401610f4d9061380d565b60405180910390fd5b600081118015610f665750478111155b610fa5576040517f08c379a0000000000000000000000000000000000000000000000000000000008152600401610f9c906137ed565b60405180910390fd5b8173ffffffffffffffffffffffffffffffffffffffff166108fc829081150290604051600060405180830381858888f19350505050158015610feb573d6000803e3d6000fd5b505050565b8173ffffffffffffffffffffffffffffffffffffffff1661100f61172d565b73ffffffffffffffffffffffffffffffffffffffff161415611066576040517f08c379a000000000000000000000000000000000000000000000000000000000815260040161105d906138ed565b60405180910390fd5b806002600061107361172d565b73ffffffffffffffffffffffffffffffffffffffff1673ffffffffffffffffffffffffffffffffffffffff16815260200190815260200160002060008473ffffffffffffffffffffffffffffffffffffffff1673ffffffffffffffffffffffffffffffffffffffff16815260200190815260200160002060006101000a81548160ff0219169083151502179055508173ffffffffffffffffffffffffffffffffffffffff1661112061172d565b73ffffffffffffffffffffffffffffffffffffffff167f17307eab39ab6107e8899845ad3d59bd9653f200f220920489ca2b5937696c318360405161116591906136b0565b60405180910390a35050565b61117961172d565b73ffffffffffffffffffffffffffffffffffffffff16611197610ddf565b73ffffffffffffffffffffffffffffffffffffffff16146111ed576040517f08c379a00000000000000000000000000000000000000000000000000000000081526004016111e4906138ad565b60405180910390fd5b6111f76005611f2f565b60006112036005611f45565b905061122085828660405180602001604052806000815250611f53565b846006600083815260200190815260200160002060006101000a81548173ffffffffffffffffffffffffffffffffffffffff021916908373ffffffffffffffffffffffffffffffffffffffff160217905550828260076000848152602001908152602001600020919061129492919061287c565b505050505050565b60006006600083815260200190815260200160002060009054906101000a900473ffffffffffffffffffffffffffffffffffffffff169050919050565b6000600260008473ffffffffffffffffffffffffffffffffffffffff1673ffffffffffffffffffffffffffffffffffffffff16815260200190815260200160002060008373ffffffffffffffffffffffffffffffffffffffff1673ffffffffffffffffffffffffffffffffffffffff16815260200190815260200160002060009054906101000a900460ff16905092915050565b61137561172d565b73ffffffffffffffffffffffffffffffffffffffff168573ffffffffffffffffffffffffffffffffffffffff1614806113bb57506113ba856113b561172d565b6112d9565b5b6113fa576040517f08c379a00000000000000000000000000000000000000000000000000000000081526004016113f1906137ad565b60405180910390fd5b61140785858585856120ea565b5050505050565b61141661172d565b73ffffffffffffffffffffffffffffffffffffffff16611434610ddf565b73ffffffffffffffffffffffffffffffffffffffff161461148a576040517f08c379a0000000000000000000000000000000000000000000000000000000008152600401611481906138ad565b60405180910390fd5b600073ffffffffffffffffffffffffffffffffffffffff168173ffffffffffffffffffffffffffffffffffffffff1614156114fa576040517f08c379a00000000000000000000000000000000000000000000000000000000081526004016114f19061378d565b60405180910390fd5b61150381611dc6565b50565b60008073ffffffffffffffffffffffffffffffffffffffff168273ffffffffffffffffffffffffffffffffffffffff161415801561157057503073ffffffffffffffffffffffffffffffffffffffff168273ffffffffffffffffffffffffffffffffffffffff1614155b6115af576040517f08c379a00000000000000000000000000000000000000000000000000000000081526004016115a6906137cd565b60405180910390fd5b600060086000858152602001908152602001600020541415611606576040517f08c379a00000000000000000000000000000000000000000000000000000000081526004016115fd9061370d565b60405180910390fd5b61162a61161161172d565b838560016040518060200160405280600081525061136d565b6001600860008581526020019081526020016000205461164a9190613b57565b6008600085815260200190815260200160002081905550600160086000858152602001908152602001600020546116819190613b57565b905092915050565b600061169433610bee565b156116a857601436033560601c90506116b7565b6116b06116bb565b90506116b8565b5b90565b600033905090565b60007f01ffc9a7000000000000000000000000000000000000000000000000000000007bffffffffffffffffffffffffffffffffffffffffffffffffffffffff1916827bffffffffffffffffffffffffffffffffffffffffffffffffffffffff1916149050919050565b6000611737611689565b905090565b8060039080519060200190611752929190612902565b5050565b600073ffffffffffffffffffffffffffffffffffffffff168473ffffffffffffffffffffffffffffffffffffffff1614156117c6576040517f08c379a00000000000000000000000000000000000000000000000000000000081526004016117bd9061394d565b60405180910390fd5b815183511461180a576040517f08c379a00000000000000000000000000000000000000000000000000000000081526004016118019061392d565b60405180910390fd5b600061181461172d565b90506118258160008787878761236f565b60005b845181101561192b5783818151811061186a577f4e487b7100000000000000000000000000000000000000000000000000000000600052603260045260246000fd5b6020026020010151600160008784815181106118af577f4e487b7100000000000000000000000000000000000000000000000000000000600052603260045260246000fd5b6020026020010151815260200190815260200160002060008873ffffffffffffffffffffffffffffffffffffffff1673ffffffffffffffffffffffffffffffffffffffff16815260200190815260200160002060008282546119119190613b01565b92505081905550808061192390613cb6565b915050611828565b508473ffffffffffffffffffffffffffffffffffffffff16600073ffffffffffffffffffffffffffffffffffffffff168273ffffffffffffffffffffffffffffffffffffffff167f4a39dc06d4c0dbc64b70af90fd698a233a518aa5d07e595d983b8c0526c8f7fb87876040516119a3929190613679565b60405180910390a46119ba816000878787876123cd565b5050505050565b8151835114611a05576040517f08c379a00000000000000000000000000000000000000000000000000000000081526004016119fc9061392d565b60405180910390fd5b600073ffffffffffffffffffffffffffffffffffffffff168473ffffffffffffffffffffffffffffffffffffffff161415611a75576040517f08c379a0000000000000000000000000000000000000000000000000000000008152600401611a6c9061384d565b60405180910390fd5b6000611a7f61172d565b9050611a8f81878787878761236f565b60005b8451811015611c8f576000858281518110611ad6577f4e487b7100000000000000000000000000000000000000000000000000000000600052603260045260246000fd5b602002602001015190506000858381518110611b1b577f4e487b7100000000000000000000000000000000000000000000000000000000600052603260045260246000fd5b6020026020010151905060006001600084815260200190815260200160002060008b73ffffffffffffffffffffffffffffffffffffffff1673ffffffffffffffffffffffffffffffffffffffff16815260200190815260200160002054905081811015611bbd576040517f08c379a0000000000000000000000000000000000000000000000000000000008152600401611bb49061388d565b60405180910390fd5b8181036001600085815260200190815260200160002060008c73ffffffffffffffffffffffffffffffffffffffff1673ffffffffffffffffffffffffffffffffffffffff16815260200190815260200160002081905550816001600085815260200190815260200160002060008b73ffffffffffffffffffffffffffffffffffffffff1673ffffffffffffffffffffffffffffffffffffffff1681526020019081526020016000206000828254611c749190613b01565b9250508190555050505080611c8890613cb6565b9050611a92565b508473ffffffffffffffffffffffffffffffffffffffff168673ffffffffffffffffffffffffffffffffffffffff168273ffffffffffffffffffffffffffffffffffffffff167f4a39dc06d4c0dbc64b70af90fd698a233a518aa5d07e595d983b8c0526c8f7fb8787604051611d06929190613679565b60405180910390a4611d1c8187878787876123cd565b505050505050565b611d2c610c47565b611d6b576040517f08c379a0000000000000000000000000000000000000000000000000000000008152600401611d629061374d565b60405180910390fd5b6000600460146101000a81548160ff0219169083151502179055507f5db9ee0a495bf2e6ff9c91a7834c1ba4fdd244a5e8aa4e537bd38aeae4b073aa611daf61172d565b604051611dbc919061357a565b60405180910390a1565b6000600460009054906101000a900473ffffffffffffffffffffffffffffffffffffffff16905081600460006101000a81548173ffffffffffffffffffffffffffffffffffffffff021916908373ffffffffffffffffffffffffffffffffffffffff1602179055508173ffffffffffffffffffffffffffffffffffffffff168173ffffffffffffffffffffffffffffffffffffffff167f8be0079c531659141344cd1fd0a4f28419497f9722a3daafe3b4186f6b6457e060405160405180910390a35050565b611e94610c47565b15611ed4576040517f08c379a0000000000000000000000000000000000000000000000000000000008152600401611ecb9061382d565b60405180910390fd5b6001600460146101000a81548160ff0219169083151502179055507f62e78cea01bee320cd4e420270b5ea74000d11b0c9f74754ebdbfc544b05a258611f1861172d565b604051611f25919061357a565b60405180910390a1565b6001816000016000828254019250508190555050565b600081600001549050919050565b600073ffffffffffffffffffffffffffffffffffffffff168473ffffffffffffffffffffffffffffffffffffffff161415611fc3576040517f08c379a0000000000000000000000000000000000000000000000000000000008152600401611fba9061394d565b60405180910390fd5b6000611fcd61172d565b9050611fee81600087611fdf886125b4565b611fe8886125b4565b8761236f565b826001600086815260200190815260200160002060008773ffffffffffffffffffffffffffffffffffffffff1673ffffffffffffffffffffffffffffffffffffffff168152602001908152602001600020600082825461204e9190613b01565b925050819055508473ffffffffffffffffffffffffffffffffffffffff16600073ffffffffffffffffffffffffffffffffffffffff168273ffffffffffffffffffffffffffffffffffffffff167fc3d58168c5ae7397731d063d5bbf3d657854427343f4c083240f7aacaa2d0f6287876040516120cc929190613988565b60405180910390a46120e38160008787878761267a565b5050505050565b600073ffffffffffffffffffffffffffffffffffffffff168473ffffffffffffffffffffffffffffffffffffffff16141561215a576040517f08c379a00000000000000000000000000000000000000000000000000000000081526004016121519061384d565b60405180910390fd5b600061216461172d565b9050612184818787612175886125b4565b61217e886125b4565b8761236f565b60006001600086815260200190815260200160002060008873ffffffffffffffffffffffffffffffffffffffff1673ffffffffffffffffffffffffffffffffffffffff1681526020019081526020016000205490508381101561221c576040517f08c379a00000000000000000000000000000000000000000000000000000000081526004016122139061388d565b60405180910390fd5b8381036001600087815260200190815260200160002060008973ffffffffffffffffffffffffffffffffffffffff1673ffffffffffffffffffffffffffffffffffffffff16815260200190815260200160002081905550836001600087815260200190815260200160002060008873ffffffffffffffffffffffffffffffffffffffff1673ffffffffffffffffffffffffffffffffffffffff16815260200190815260200160002060008282546122d39190613b01565b925050819055508573ffffffffffffffffffffffffffffffffffffffff168773ffffffffffffffffffffffffffffffffffffffff168373ffffffffffffffffffffffffffffffffffffffff167fc3d58168c5ae7397731d063d5bbf3d657854427343f4c083240f7aacaa2d0f628888604051612350929190613988565b60405180910390a461236682888888888861267a565b50505050505050565b612377610c47565b156123b7576040517f08c379a00000000000000000000000000000000000000000000000000000000081526004016123ae9061382d565b60405180910390fd5b6123c5868686868686612861565b505050505050565b6123ec8473ffffffffffffffffffffffffffffffffffffffff16612869565b156125ac578373ffffffffffffffffffffffffffffffffffffffff1663bc197c8187878686866040518663ffffffff1660e01b8152600401612432959493929190613595565b602060405180830381600087803b15801561244c57600080fd5b505af192505050801561247d57506040513d601f19601f8201168201806040525081019061247a919061307c565b60015b61252357612489613d8c565b806308c379a014156124e6575061249e6142c8565b806124a957506124e8565b806040517f08c379a00000000000000000000000000000000000000000000000000000000081526004016124dd91906136cb565b60405180910390fd5b505b6040517f08c379a000000000000000000000000000000000000000000000000000000000815260040161251a906136ed565b60405180910390fd5b63bc197c8160e01b7bffffffffffffffffffffffffffffffffffffffffffffffffffffffff1916817bffffffffffffffffffffffffffffffffffffffffffffffffffffffff1916146125aa576040517f08c379a00000000000000000000000000000000000000000000000000000000081526004016125a19061372d565b60405180910390fd5b505b505050505050565b60606000600167ffffffffffffffff8111156125f9577f4e487b7100000000000000000000000000000000000000000000000000000000600052604160045260246000fd5b6040519080825280602002602001820160405280156126275781602001602082028036833780820191505090505b5090508281600081518110612665577f4e487b7100000000000000000000000000000000000000000000000000000000600052603260045260246000fd5b60200260200101818152505080915050919050565b6126998473ffffffffffffffffffffffffffffffffffffffff16612869565b15612859578373ffffffffffffffffffffffffffffffffffffffff1663f23a6e6187878686866040518663ffffffff1660e01b81526004016126df9594939291906135fd565b602060405180830381600087803b1580156126f957600080fd5b505af192505050801561272a57506040513d601f19601f82011682018060405250810190612727919061307c565b60015b6127d057612736613d8c565b806308c379a01415612793575061274b6142c8565b806127565750612795565b806040517f08c379a000000000000000000000000000000000000000000000000000000000815260040161278a91906136cb565b60405180910390fd5b505b6040517f08c379a00000000000000000000000000000000000000000000000000000000081526004016127c7906136ed565b60405180910390fd5b63f23a6e6160e01b7bffffffffffffffffffffffffffffffffffffffffffffffffffffffff1916817bffffffffffffffffffffffffffffffffffffffffffffffffffffffff191614612857576040517f08c379a000000000000000000000000000000000000000000000000000000000815260040161284e9061372d565b60405180910390fd5b505b505050505050565b505050505050565b600080823b905060008111915050919050565b82805461288890613c53565b90600052602060002090601f0160209004810192826128aa57600085556128f1565b82601f106128c357803560ff19168380011785556128f1565b828001600101855582156128f1579182015b828111156128f05782358255916020019190600101906128d5565b5b5090506128fe9190612988565b5090565b82805461290e90613c53565b90600052602060002090601f0160209004810192826129305760008555612977565b82601f1061294957805160ff1916838001178555612977565b82800160010185558215612977579182015b8281111561297657825182559160200191906001019061295b565b5b5090506129849190612988565b5090565b5b808211156129a1576000816000905550600101612989565b5090565b60006129b86129b3846139d6565b6139b1565b905080838252602082019050828560208602820111156129d757600080fd5b60005b85811015612a0757816129ed8882612af9565b8452602084019350602083019250506001810190506129da565b5050509392505050565b6000612a24612a1f84613a02565b6139b1565b90508083825260208201905082856020860282011115612a4357600080fd5b60005b85811015612a735781612a598882612c54565b845260208401935060208301925050600181019050612a46565b5050509392505050565b6000612a90612a8b84613a2e565b6139b1565b905082815260208101848484011115612aa857600080fd5b612ab3848285613c11565b509392505050565b6000612ace612ac984613a5f565b6139b1565b905082815260208101848484011115612ae657600080fd5b612af1848285613c11565b509392505050565b600081359050612b088161435e565b92915050565b600081359050612b1d81614375565b92915050565b600082601f830112612b3457600080fd5b8135612b448482602086016129a5565b91505092915050565b600082601f830112612b5e57600080fd5b8135612b6e848260208601612a11565b91505092915050565b600081359050612b868161438c565b92915050565b600081359050612b9b816143a3565b92915050565b600081519050612bb0816143a3565b92915050565b600082601f830112612bc757600080fd5b8135612bd7848260208601612a7d565b91505092915050565b60008083601f840112612bf257600080fd5b8235905067ffffffffffffffff811115612c0b57600080fd5b602083019150836001820283011115612c2357600080fd5b9250929050565b600082601f830112612c3b57600080fd5b8135612c4b848260208601612abb565b91505092915050565b600081359050612c63816143ba565b92915050565b600060208284031215612c7b57600080fd5b6000612c8984828501612af9565b91505092915050565b60008060408385031215612ca557600080fd5b6000612cb385828601612b0e565b9250506020612cc485828601612c54565b9150509250929050565b60008060408385031215612ce157600080fd5b6000612cef85828601612af9565b9250506020612d0085828601612af9565b9150509250929050565b600080600080600060a08688031215612d2257600080fd5b6000612d3088828901612af9565b9550506020612d4188828901612af9565b945050604086013567ffffffffffffffff811115612d5e57600080fd5b612d6a88828901612b4d565b935050606086013567ffffffffffffffff811115612d8757600080fd5b612d9388828901612b4d565b925050608086013567ffffffffffffffff811115612db057600080fd5b612dbc88828901612bb6565b9150509295509295909350565b600080600080600060a08688031215612de157600080fd5b6000612def88828901612af9565b9550506020612e0088828901612af9565b9450506040612e1188828901612c54565b9350506060612e2288828901612c54565b925050608086013567ffffffffffffffff811115612e3f57600080fd5b612e4b88828901612bb6565b9150509295509295909350565b60008060008060808587031215612e6e57600080fd5b6000612e7c87828801612af9565b945050602085013567ffffffffffffffff811115612e9957600080fd5b612ea587828801612b4d565b935050604085013567ffffffffffffffff811115612ec257600080fd5b612ece87828801612b4d565b925050606085013567ffffffffffffffff811115612eeb57600080fd5b612ef787828801612bb6565b91505092959194509250565b60008060408385031215612f1657600080fd5b6000612f2485828601612af9565b9250506020612f3585828601612b77565b9150509250929050565b60008060408385031215612f5257600080fd5b6000612f6085828601612af9565b9250506020612f7185828601612c54565b9150509250929050565b60008060008060608587031215612f9157600080fd5b6000612f9f87828801612af9565b9450506020612fb087828801612c54565b935050604085013567ffffffffffffffff811115612fcd57600080fd5b612fd987828801612be0565b925092505092959194509250565b60008060408385031215612ffa57600080fd5b600083013567ffffffffffffffff81111561301457600080fd5b61302085828601612b23565b925050602083013567ffffffffffffffff81111561303d57600080fd5b61304985828601612b4d565b9150509250929050565b60006020828403121561306557600080fd5b600061307384828501612b8c565b91505092915050565b60006020828403121561308e57600080fd5b600061309c84828501612ba1565b91505092915050565b6000602082840312156130b757600080fd5b600082013567ffffffffffffffff8111156130d157600080fd5b6130dd84828501612c2a565b91505092915050565b6000602082840312156130f857600080fd5b600061310684828501612c54565b91505092915050565b6000806040838503121561312257600080fd5b600061313085828601612c54565b925050602061314185828601612af9565b9150509250929050565b60008060006060848603121561316057600080fd5b600061316e86828701612c54565b935050602061317f86828701612af9565b925050604061319086828701612c54565b9150509250925092565b60006131a6838361355c565b60208301905092915050565b6131bb81613b8b565b82525050565b60006131cc82613aa0565b6131d68185613ace565b93506131e183613a90565b8060005b838110156132125781516131f9888261319a565b975061320483613ac1565b9250506001810190506131e5565b5085935050505092915050565b61322881613baf565b82525050565b600061323982613aab565b6132438185613adf565b9350613253818560208601613c20565b61325c81613dae565b840191505092915050565b600061327282613ab6565b61327c8185613af0565b935061328c818560208601613c20565b61329581613dae565b840191505092915050565b60006132ad603483613af0565b91506132b882613dcc565b604082019050919050565b60006132d0601383613af0565b91506132db82613e1b565b602082019050919050565b60006132f3602883613af0565b91506132fe82613e44565b604082019050919050565b6000613316601483613af0565b915061332182613e93565b602082019050919050565b6000613339602b83613af0565b915061334482613ebc565b604082019050919050565b600061335c602683613af0565b915061336782613f0b565b604082019050919050565b600061337f602983613af0565b915061338a82613f5a565b604082019050919050565b60006133a2601283613af0565b91506133ad82613fa9565b602082019050919050565b60006133c5601283613af0565b91506133d082613fd2565b602082019050919050565b60006133e8600f83613af0565b91506133f382613ffb565b602082019050919050565b600061340b601083613af0565b915061341682614024565b602082019050919050565b600061342e602583613af0565b91506134398261404d565b604082019050919050565b6000613451603283613af0565b915061345c8261409c565b604082019050919050565b6000613474602a83613af0565b915061347f826140eb565b604082019050919050565b6000613497602083613af0565b91506134a28261413a565b602082019050919050565b60006134ba600e83613af0565b91506134c582614163565b602082019050919050565b60006134dd602983613af0565b91506134e88261418c565b604082019050919050565b6000613500602983613af0565b915061350b826141db565b604082019050919050565b6000613523602883613af0565b915061352e8261422a565b604082019050919050565b6000613546602183613af0565b915061355182614279565b604082019050919050565b61356581613c07565b82525050565b61357481613c07565b82525050565b600060208201905061358f60008301846131b2565b92915050565b600060a0820190506135aa60008301886131b2565b6135b760208301876131b2565b81810360408301526135c981866131c1565b905081810360608301526135dd81856131c1565b905081810360808301526135f1818461322e565b90509695505050505050565b600060a08201905061361260008301886131b2565b61361f60208301876131b2565b61362c604083018661356b565b613639606083018561356b565b818103608083015261364b818461322e565b90509695505050505050565b6000602082019050818103600083015261367181846131c1565b905092915050565b6000604082019050818103600083015261369381856131c1565b905081810360208301526136a781846131c1565b90509392505050565b60006020820190506136c5600083018461321f565b92915050565b600060208201905081810360008301526136e58184613267565b905092915050565b60006020820190508181036000830152613706816132a0565b9050919050565b60006020820190508181036000830152613726816132c3565b9050919050565b60006020820190508181036000830152613746816132e6565b9050919050565b6000602082019050818103600083015261376681613309565b9050919050565b600060208201905081810360008301526137868161332c565b9050919050565b600060208201905081810360008301526137a68161334f565b9050919050565b600060208201905081810360008301526137c681613372565b9050919050565b600060208201905081810360008301526137e681613395565b9050919050565b60006020820190508181036000830152613806816133b8565b9050919050565b60006020820190508181036000830152613826816133db565b9050919050565b60006020820190508181036000830152613846816133fe565b9050919050565b6000602082019050818103600083015261386681613421565b9050919050565b6000602082019050818103600083015261388681613444565b9050919050565b600060208201905081810360008301526138a681613467565b9050919050565b600060208201905081810360008301526138c68161348a565b9050919050565b600060208201905081810360008301526138e6816134ad565b9050919050565b60006020820190508181036000830152613906816134d0565b9050919050565b60006020820190508181036000830152613926816134f3565b9050919050565b6000602082019050818103600083015261394681613516565b9050919050565b6000602082019050818103600083015261396681613539565b9050919050565b6000602082019050613982600083018461356b565b92915050565b600060408201905061399d600083018561356b565b6139aa602083018461356b565b9392505050565b60006139bb6139cc565b90506139c78282613c85565b919050565b6000604051905090565b600067ffffffffffffffff8211156139f1576139f0613d5d565b5b602082029050602081019050919050565b600067ffffffffffffffff821115613a1d57613a1c613d5d565b5b602082029050602081019050919050565b600067ffffffffffffffff821115613a4957613a48613d5d565b5b613a5282613dae565b9050602081019050919050565b600067ffffffffffffffff821115613a7a57613a79613d5d565b5b613a8382613dae565b9050602081019050919050565b6000819050602082019050919050565b600081519050919050565b600081519050919050565b600081519050919050565b6000602082019050919050565b600082825260208201905092915050565b600082825260208201905092915050565b600082825260208201905092915050565b6000613b0c82613c07565b9150613b1783613c07565b9250827fffffffffffffffffffffffffffffffffffffffffffffffffffffffffffffffff03821115613b4c57613b4b613cff565b5b828201905092915050565b6000613b6282613c07565b9150613b6d83613c07565b925082821015613b8057613b7f613cff565b5b828203905092915050565b6000613b9682613be7565b9050919050565b6000613ba882613be7565b9050919050565b60008115159050919050565b60007fffffffff0000000000000000000000000000000000000000000000000000000082169050919050565b600073ffffffffffffffffffffffffffffffffffffffff82169050919050565b6000819050919050565b82818337600083830152505050565b60005b83811015613c3e578082015181840152602081019050613c23565b83811115613c4d576000848401525b50505050565b60006002820490506001821680613c6b57607f821691505b60208210811415613c7f57613c7e613d2e565b5b50919050565b613c8e82613dae565b810181811067ffffffffffffffff82111715613cad57613cac613d5d565b5b80604052505050565b6000613cc182613c07565b91507fffffffffffffffffffffffffffffffffffffffffffffffffffffffffffffffff821415613cf457613cf3613cff565b5b600182019050919050565b7f4e487b7100000000000000000000000000000000000000000000000000000000600052601160045260246000fd5b7f4e487b7100000000000000000000000000000000000000000000000000000000600052602260045260246000fd5b7f4e487b7100000000000000000000000000000000000000000000000000000000600052604160045260246000fd5b600060033d1115613dab5760046000803e613da8600051613dbf565b90505b90565b6000601f19601f8301169050919050565b60008160e01c9050919050565b7f455243313135353a207472616e7366657220746f206e6f6e204552433131353560008201527f526563656976657220696d706c656d656e746572000000000000000000000000602082015250565b7f546f6b656e20646f65736e277420657869737400000000000000000000000000600082015250565b7f455243313135353a204552433131353552656365697665722072656a6563746560008201527f6420746f6b656e73000000000000000000000000000000000000000000000000602082015250565b7f5061757361626c653a206e6f7420706175736564000000000000000000000000600082015250565b7f455243313135353a2062616c616e636520717565727920666f7220746865207a60008201527f65726f2061646472657373000000000000000000000000000000000000000000602082015250565b7f4f776e61626c653a206e6577206f776e657220697320746865207a65726f206160008201527f6464726573730000000000000000000000000000000000000000000000000000602082015250565b7f455243313135353a2063616c6c6572206973206e6f74206f776e6572206e6f7260008201527f20617070726f7665640000000000000000000000000000000000000000000000602082015250565b7f427579657220697320746865206f776e65720000000000000000000000000000600082015250565b7f496e73756666696369656e742066756e64730000000000000000000000000000600082015250565b7f43616e6e6f74207061792073656c660000000000000000000000000000000000600082015250565b7f5061757361626c653a2070617573656400000000000000000000000000000000600082015250565b7f455243313135353a207472616e7366657220746f20746865207a65726f20616460008201527f6472657373000000000000000000000000000000000000000000000000000000602082015250565b7f455243313135353a207472616e736665722063616c6c6572206973206e6f742060008201527f6f776e6572206e6f7220617070726f7665640000000000000000000000000000602082015250565b7f455243313135353a20696e73756666696369656e742062616c616e636520666f60008201527f72207472616e7366657200000000000000000000000000000000000000000000602082015250565b7f4f776e61626c653a2063616c6c6572206973206e6f7420746865206f776e6572600082015250565b7f546f6b656e20736f6c64206f7574000000000000000000000000000000000000600082015250565b7f455243313135353a2073657474696e6720617070726f76616c2073746174757360008201527f20666f722073656c660000000000000000000000000000000000000000000000602082015250565b7f455243313135353a206163636f756e747320616e6420696473206c656e67746860008201527f206d69736d617463680000000000000000000000000000000000000000000000602082015250565b7f455243313135353a2069647320616e6420616d6f756e7473206c656e6774682060008201527f6d69736d61746368000000000000000000000000000000000000000000000000602082015250565b7f455243313135353a206d696e7420746f20746865207a65726f2061646472657360008201527f7300000000000000000000000000000000000000000000000000000000000000602082015250565b600060443d10156142d85761435b565b6142e06139cc565b60043d036004823e80513d602482011167ffffffffffffffff8211171561430857505061435b565b808201805167ffffffffffffffff811115614326575050505061435b565b80602083010160043d03850181111561434357505050505061435b565b61435282602001850186613c85565b82955050505050505b90565b61436781613b8b565b811461437257600080fd5b50565b61437e81613b9d565b811461438957600080fd5b50565b61439581613baf565b81146143a057600080fd5b50565b6143ac81613bbb565b81146143b757600080fd5b50565b6143c381613c07565b81146143ce57600080fd5b5056fea2646970667358221220cdcb8d2b5d7d391a4690c94dd41e6007a12ba0a4a73dd821c46b0c48c8ed890764736f6c6343000802003368747470733a2f2f697066732e696f2f697066732f7b4349447d2f6d657461646174612e6a736f6e",
  "immutableReferences": {},
  "source": "// SPDX-License-Identifier: MIT\npragma solidity ^0.8.2;\n\nimport \"@openzeppelin/contracts/token/ERC1155/ERC1155.sol\";\nimport \"@openzeppelin/contracts/access/Ownable.sol\";\nimport \"@openzeppelin/contracts/security/Pausable.sol\";\nimport \"@openzeppelin/contracts/utils/Counters.sol\";\nimport \"@openzeppelin/contracts/metatx/ERC2771Context.sol\";\nimport \"@openzeppelin/contracts/metatx/MinimalForwarder.sol\";\n\ncontract Filmrare is ERC2771Context, ERC1155, Ownable, Pausable {\n    /// @custom:oz-upgrades-unsafe-allow constructor\n     \n    using Counters for Counters.Counter;\n    Counters.Counter private _tokenIds;\n\n    mapping (uint256 => address) private _tokenCreators;\n    mapping (uint256 => string) private _tokenCIDs;\n    mapping (uint256 => uint256) private _tokenAmount;\n    mapping (uint256 => address) private _tokenSeller;\n\n    address _sellerAddress;\n\n    constructor(MinimalForwarder forwarder)\n        ERC2771Context(address(forwarder))\n        ERC1155(\"https://ipfs.io/ipfs/{CID}/metadata.json\") {\n        _sellerAddress = _msgSender();\n    }\n\n    function _msgSender() internal view override(Context, ERC2771Context)\n        returns (address sender) {\n        sender = ERC2771Context._msgSender();\n    }\n\n    function _msgData() internal view override(Context, ERC2771Context)\n        returns (bytes calldata) {\n        return ERC2771Context._msgData();\n    }\n\n    function getCID(uint256 _tokenId) public view returns (string memory) {\n        // require(_tokenCreators[_tokenId]!=0, \"Token doesn't exist\");\n        return _tokenCIDs[_tokenId];\n    }\n\n    function getCreator(uint256 _tokenId) public view returns (address) {\n        // require(_tokenCreators[_tokenId]!=0, \"Token doesn't exist\");\n        return _tokenCreators[_tokenId];\n    }\n\n    function getQuantityLeft(uint256 _tokenId) public view returns (uint256) {\n        require(_tokenAmount[_tokenId]!=0, \"Token doesn't exist\");\n        return _tokenAmount[_tokenId];\n    }\n\n    function setURI(string memory newuri) public onlyOwner {\n        _setURI(newuri);\n    }\n\n    function pause() public onlyOwner {\n        _pause();\n    }\n\n    function unpause() public onlyOwner {\n        _unpause();\n    }\n\n    function mint(\n        address _to,\n        uint256 _quantity,\n        string calldata _CID\n    ) public onlyOwner {\n        _tokenIds.increment();\n\n        uint256 newItemId = _tokenIds.current();\n        _mint(_to, newItemId, _quantity, \"\");\n        _tokenCreators[newItemId]= _to;\n        _tokenCIDs[newItemId] = _CID;\n    }\n\n    function mintBatch(address to, uint256[] memory ids, uint256[] memory amounts, bytes memory data)\n        public\n        onlyOwner\n    {\n        _mintBatch(to, ids, amounts, data);\n    }\n\n    function _beforeTokenTransfer(address operator, address from, address to, uint256[] memory ids, uint256[] memory amounts, bytes memory data)\n        internal\n        whenNotPaused\n        override\n    {\n        super._beforeTokenTransfer(operator, from, to, ids, amounts, data);\n    }\n\n    function purchaseToken(uint256 _tokenId, address _to) public returns (uint256) {\n        require(_to != address(0) && _to != address(this), \"Buyer is the owner\");\n        require(_tokenAmount[_tokenId]!=0, \"Token doesn't exist\");\n        safeTransferFrom(_msgSender(), _to, _tokenId, 1, \"\");\n        _tokenAmount[_tokenId] = _tokenAmount[_tokenId]-1;\n        return _tokenAmount[_tokenId]-1;\n    }\n    \n    function sellToken(uint256 _tokenId, address _to, uint256 _amount) public {\n        address tokenSeller = _tokenCreators[_tokenId];\n        require(balanceOf(tokenSeller, _tokenId)>=_amount, \"Token sold out\");\n        safeTransferFrom(tokenSeller, _to, _tokenId, _amount, \"\");\n        _tokenSeller[_tokenId] = _to;\n        _tokenAmount[_tokenId] = _tokenAmount[_tokenId]+_amount;\n    }\n\n    function sendTo(address payable _payee, uint256 _amount) public {\n        require(_payee != address(0) && _payee != address(this), \"Cannot pay self\");\n        require(_amount > 0 && _amount <= address(this).balance, \"Insufficient funds\");\n        _payee.transfer(_amount);\n    }\n}\n",
  "sourcePath": "/Users/krcnow/Documents/Projects/React/filmrarevideo/contracts/Filmrare.sol",
  "compiler": {
    "name": "solc",
    "version": "0.8.2+commit.661d1103.Emscripten.clang"
  },
  "schemaVersion": "3.4.3",
  "updatedAt": "2021-11-06T19:31:06.986Z",
  "networkType": "ethereum",
  "devdoc": {
    "kind": "dev",
    "methods": {
      "balanceOf(address,uint256)": {
        "details": "See {IERC1155-balanceOf}. Requirements: - `account` cannot be the zero address."
      },
      "balanceOfBatch(address[],uint256[])": {
        "details": "See {IERC1155-balanceOfBatch}. Requirements: - `accounts` and `ids` must have the same length."
      },
      "isApprovedForAll(address,address)": {
        "details": "See {IERC1155-isApprovedForAll}."
      },
      "owner()": {
        "details": "Returns the address of the current owner."
      },
      "paused()": {
        "details": "Returns true if the contract is paused, and false otherwise."
      },
      "renounceOwnership()": {
        "details": "Leaves the contract without owner. It will not be possible to call `onlyOwner` functions anymore. Can only be called by the current owner. NOTE: Renouncing ownership will leave the contract without an owner, thereby removing any functionality that is only available to the owner."
      },
      "safeBatchTransferFrom(address,address,uint256[],uint256[],bytes)": {
        "details": "See {IERC1155-safeBatchTransferFrom}."
      },
      "safeTransferFrom(address,address,uint256,uint256,bytes)": {
        "details": "See {IERC1155-safeTransferFrom}."
      },
      "setApprovalForAll(address,bool)": {
        "details": "See {IERC1155-setApprovalForAll}."
      },
      "supportsInterface(bytes4)": {
        "details": "See {IERC165-supportsInterface}."
      },
      "transferOwnership(address)": {
        "details": "Transfers ownership of the contract to a new account (`newOwner`). Can only be called by the current owner."
      },
      "uri(uint256)": {
        "details": "See {IERC1155MetadataURI-uri}. This implementation returns the same URI for *all* token types. It relies on the token type ID substitution mechanism https://eips.ethereum.org/EIPS/eip-1155#metadata[defined in the EIP]. Clients calling this function must replace the `\\{id\\}` substring with the actual token type ID."
      }
    },
    "version": 1
  },
  "userdoc": {
    "kind": "user",
    "methods": {},
    "version": 1
  }
}